{"result":{"tx":[{"vsize":135,"size":135,"locktime":0,"txid":"9c397f783042029888ec02f0a461cfa2cc8e3c7897f476e338720a2a86731c60","weight":540,"vin":[{"sequence":4294967295,"coinbase":"04ffff001d026f03"}],"hex":"01000000010000000000000000000000000000000000000000000000000000000000000000ffffffff0804ffff001d026f03ffffffff0100f2052a010000004341042f462d3245d2f3a015f7f9505f763ee1080cab36191d07ae9e6509f71bb68818719e6fb41c019bf48ae11c45b024d476e19b6963103ce8647fc15fee513b15c7ac00000000","version":1,"hash":"9c397f783042029888ec02f0a461cfa2cc8e3c7897f476e338720a2a86731c60","vout":[{"scriptPubKey":{"asm":"042f462d3245d2f3a015f7f9505f763ee1080cab36191d07ae9e6509f71bb68818719e6fb41c019bf48ae11c45b024d476e19b6963103ce8647fc15fee513b15c7 OP_CHECKSIG","hex":"41042f462d3245d2f3a015f7f9505f763ee1080cab36191d07ae9e6509f71bb68818719e6fb41c019bf48ae11c45b024d476e19b6963103ce8647fc15fee513b15c7ac","type":"pubkey"},"value":50.0,"n":0}]}],"mediantime":1238985062,"previousblockhash":"00000000fbc97cc6c599ce9c24dd4a2243e2bfd518eda56e1d5e47d29e29c3a7","bits":"1d00ffff","weight":864,"versionHex":"00000001","confirmations":727630,"version":1,"nonce":2145410362,"nextblockhash":"00000000f01df1dbc52bce6d8d31167a8fef76f1a8eb67897469cf92205e806b","difficulty":1,"chainwork":"0000000000000000000000000000000000000000000000000000271127112711","nTx":1,"size":216,"merkleroot":"9c397f783042029888ec02f0a461cfa2cc8e3c7897f476e338720a2a86731c60","strippedsize":216,"time":1238988213,"hash":"0000000099c744455f58e6c6e98b671e1bf7f37346bfd4cf5d0274ad8ee660cb","height":10000},"id":"ab3c3ff5-ee86-425a-9ccd-ea1887c9192b","error":null}